{
  "abi": [
    {
      "inputs": [
        {
          "internalType": "address",
          "name": "IWonderJobArbitrationAddress",
          "type": "address"
        }
      ],
      "stateMutability": "nonpayable",
      "type": "constructor"
    },
    {
      "inputs": [],
      "name": "ClientIsTakeOrder",
      "type": "error"
    },
    {
      "inputs": [],
      "name": "EscrowFundsBalanceOfWasZero",
      "type": "error"
    },
    {
      "inputs": [
        {
          "internalType": "uint128",
          "name": "escrowAmount",
          "type": "uint128"
        }
      ],
      "name": "InsufficientEscrowAmount",
      "type": "error"
    },
    {
      "inputs": [
        {
          "internalType": "uint256",
          "name": "depositAmount",
          "type": "uint256"
        }
      ],
      "name": "InsufficientFunds",
      "type": "error"
    },
    {
      "inputs": [],
      "name": "InvalidInitialization",
      "type": "error"
    },
    {
      "inputs": [],
      "name": "InvalidOrderClient",
      "type": "error"
    },
    {
      "inputs": [
        {
          "internalType": "uint256",
          "name": "orderNonce",
          "type": "uint256"
        }
      ],
      "name": "InvalidOrderNonce",
      "type": "error"
    },
    {
      "inputs": [
        {
          "internalType": "bytes32",
          "name": "signatureHash",
          "type": "bytes32"
        }
      ],
      "name": "InvalidSignature",
      "type": "error"
    },
    {
      "inputs": [],
      "name": "NotInitializing",
      "type": "error"
    },
    {
      "inputs": [],
      "name": "OrderAccepted",
      "type": "error"
    },
    {
      "inputs": [],
      "name": "OrderException",
      "type": "error"
    },
    {
      "inputs": [],
      "name": "OrderInModify",
      "type": "error"
    },
    {
      "inputs": [
        {
          "internalType": "address",
          "name": "owner",
          "type": "address"
        }
      ],
      "name": "OwnableInvalidOwner",
      "type": "error"
    },
    {
      "inputs": [
        {
          "internalType": "address",
          "name": "account",
          "type": "address"
        }
      ],
      "name": "OwnableUnauthorizedAccount",
      "type": "error"
    },
    {
      "inputs": [],
      "name": "ReentrancyGuardReentrantCall",
      "type": "error"
    },
    {
      "inputs": [],
      "name": "UserHasNoAuthorization",
      "type": "error"
    },
    {
      "anonymous": false,
      "inputs": [
        {
          "indexed": true,
          "internalType": "address",
          "name": "publisher",
          "type": "address"
        },
        {
          "indexed": true,
          "internalType": "uint256",
          "name": "orderDeadline",
          "type": "uint256"
        },
        {
          "indexed": true,
          "internalType": "uint256",
          "name": "orderStatus",
          "type": "uint256"
        },
        {
          "indexed": false,
          "internalType": "uint256",
          "name": "orderNonce",
          "type": "uint256"
        }
      ],
      "name": "CreateOrder",
      "type": "event"
    },
    {
      "anonymous": false,
      "inputs": [
        {
          "indexed": true,
          "internalType": "address",
          "name": "sender",
          "type": "address"
        },
        {
          "indexed": false,
          "internalType": "uint256",
          "name": "depositAmount",
          "type": "uint256"
        }
      ],
      "name": "DepositEscrowFund",
      "type": "event"
    },
    {
      "anonymous": false,
      "inputs": [
        {
          "indexed": false,
          "internalType": "uint64",
          "name": "version",
          "type": "uint64"
        }
      ],
      "name": "Initialized",
      "type": "event"
    },
    {
      "anonymous": false,
      "inputs": [
        {
          "indexed": true,
          "internalType": "address",
          "name": "previousOwner",
          "type": "address"
        },
        {
          "indexed": true,
          "internalType": "address",
          "name": "newOwner",
          "type": "address"
        }
      ],
      "name": "OwnershipTransferred",
      "type": "event"
    },
    {
      "anonymous": false,
      "inputs": [
        {
          "indexed": true,
          "internalType": "address",
          "name": "sender",
          "type": "address"
        },
        {
          "indexed": true,
          "internalType": "bytes32",
          "name": "orderId",
          "type": "bytes32"
        },
        {
          "indexed": false,
          "internalType": "uint256",
          "name": "depositAmount",
          "type": "uint256"
        }
      ],
      "name": "WithdrowEscrowFund",
      "type": "event"
    },
    {
      "inputs": [],
      "name": "CLIENT_ESCROW_AMOUNT",
      "outputs": [
        {
          "internalType": "uint256",
          "name": "",
          "type": "uint256"
        }
      ],
      "stateMutability": "view",
      "type": "function"
    },
    {
      "inputs": [],
      "name": "MAX_ESCROW_AMOUNT",
      "outputs": [
        {
          "internalType": "uint256",
          "name": "",
          "type": "uint256"
        }
      ],
      "stateMutability": "view",
      "type": "function"
    },
    {
      "inputs": [],
      "name": "MIN_ESCROW_AMOUNT",
      "outputs": [
        {
          "internalType": "uint256",
          "name": "",
          "type": "uint256"
        }
      ],
      "stateMutability": "view",
      "type": "function"
    },
    {
      "inputs": [],
      "name": "WonderJobArbitration",
      "outputs": [
        {
          "internalType": "contract IWonderJobArbitration",
          "name": "",
          "type": "address"
        }
      ],
      "stateMutability": "view",
      "type": "function"
    },
    {
      "inputs": [
        {
          "internalType": "address",
          "name": "serviceProvider",
          "type": "address"
        },
        {
          "internalType": "uint256",
          "name": "orderNonce",
          "type": "uint256"
        }
      ],
      "name": "acceptOrder",
      "outputs": [],
      "stateMutability": "nonpayable",
      "type": "function"
    },
    {
      "inputs": [
        {
          "internalType": "address",
          "name": "serviceProvider",
          "type": "address"
        },
        {
          "internalType": "uint256",
          "name": "orderNonce",
          "type": "uint256"
        }
      ],
      "name": "cancelOrder",
      "outputs": [],
      "stateMutability": "nonpayable",
      "type": "function"
    },
    {
      "inputs": [
        {
          "internalType": "address",
          "name": "serviceProvider",
          "type": "address"
        },
        {
          "internalType": "bytes32",
          "name": "orderId",
          "type": "bytes32"
        }
      ],
      "name": "completeOrder",
      "outputs": [],
      "stateMutability": "payable",
      "type": "function"
    },
    {
      "inputs": [
        {
          "internalType": "uint32",
          "name": "orderDeadline",
          "type": "uint32"
        },
        {
          "internalType": "uint96",
          "name": "orderPrice",
          "type": "uint96"
        },
        {
          "internalType": "bytes32",
          "name": "ipfsLink",
          "type": "bytes32"
        },
        {
          "internalType": "bytes32",
          "name": "hash",
          "type": "bytes32"
        },
        {
          "internalType": "uint8",
          "name": "v",
          "type": "uint8"
        },
        {
          "internalType": "bytes32",
          "name": "r",
          "type": "bytes32"
        },
        {
          "internalType": "bytes32",
          "name": "s",
          "type": "bytes32"
        }
      ],
      "name": "createOrder",
      "outputs": [],
      "stateMutability": "payable",
      "type": "function"
    },
    {
      "inputs": [
        {
          "components": [
            {
              "internalType": "address",
              "name": "userAddress",
              "type": "address"
            },
            {
              "internalType": "bool",
              "name": "isCustomer",
              "type": "bool"
            },
            {
              "internalType": "bool",
              "name": "isServiceProvider",
              "type": "bool"
            },
            {
              "internalType": "bool",
              "name": "isRegistered",
              "type": "bool"
            },
            {
              "internalType": "uint256",
              "name": "creationTime",
              "type": "uint256"
            }
          ],
          "internalType": "struct User",
          "name": "user",
          "type": "tuple"
        }
      ],
      "name": "createUser",
      "outputs": [],
      "stateMutability": "nonpayable",
      "type": "function"
    },
    {
      "inputs": [
        {
          "internalType": "uint128",
          "name": "escrowAmount",
          "type": "uint128"
        }
      ],
      "name": "depositEscrowFundWithClient",
      "outputs": [],
      "stateMutability": "payable",
      "type": "function"
    },
    {
      "inputs": [],
      "name": "feeConfig",
      "outputs": [
        {
          "internalType": "uint24",
          "name": "feeDecimal",
          "type": "uint24"
        },
        {
          "internalType": "uint24",
          "name": "feeScale",
          "type": "uint24"
        },
        {
          "internalType": "uint24",
          "name": "feeMaxScale",
          "type": "uint24"
        },
        {
          "internalType": "uint24",
          "name": "feeMinScale",
          "type": "uint24"
        },
        {
          "internalType": "address",
          "name": "lastExecutor",
          "type": "address"
        },
        {
          "internalType": "bool",
          "name": "feeOn",
          "type": "bool"
        },
        {
          "internalType": "address",
          "name": "feeTo",
          "type": "address"
        }
      ],
      "stateMutability": "view",
      "type": "function"
    },
    {
      "inputs": [],
      "name": "getClientEscrowFundBalanceof",
      "outputs": [
        {
          "internalType": "uint256",
          "name": "",
          "type": "uint256"
        }
      ],
      "stateMutability": "view",
      "type": "function"
    },
    {
      "inputs": [
        {
          "internalType": "uint256",
          "name": "orderNonce",
          "type": "uint256"
        }
      ],
      "name": "getOrderId",
      "outputs": [
        {
          "internalType": "bytes32",
          "name": "",
          "type": "bytes32"
        }
      ],
      "stateMutability": "view",
      "type": "function"
    },
    {
      "inputs": [
        {
          "internalType": "address",
          "name": "user",
          "type": "address"
        }
      ],
      "name": "getOrderNonce",
      "outputs": [
        {
          "internalType": "uint256",
          "name": "",
          "type": "uint256"
        }
      ],
      "stateMutability": "view",
      "type": "function"
    },
    {
      "inputs": [],
      "name": "getUserProfile",
      "outputs": [
        {
          "components": [
            {
              "internalType": "address",
              "name": "userAddress",
              "type": "address"
            },
            {
              "internalType": "bool",
              "name": "isCustomer",
              "type": "bool"
            },
            {
              "internalType": "bool",
              "name": "isServiceProvider",
              "type": "bool"
            },
            {
              "internalType": "bool",
              "name": "isRegistered",
              "type": "bool"
            },
            {
              "internalType": "uint256",
              "name": "creationTime",
              "type": "uint256"
            }
          ],
          "internalType": "struct User",
          "name": "_user",
          "type": "tuple"
        }
      ],
      "stateMutability": "view",
      "type": "function"
    },
    {
      "inputs": [],
      "name": "owner",
      "outputs": [
        {
          "internalType": "address",
          "name": "",
          "type": "address"
        }
      ],
      "stateMutability": "view",
      "type": "function"
    },
    {
      "inputs": [],
      "name": "renounceOwnership",
      "outputs": [],
      "stateMutability": "nonpayable",
      "type": "function"
    },
    {
      "inputs": [
        {
          "internalType": "bool",
          "name": "enable",
          "type": "bool"
        }
      ],
      "name": "setFee",
      "outputs": [],
      "stateMutability": "nonpayable",
      "type": "function"
    },
    {
      "inputs": [
        {
          "internalType": "uint24[4]",
          "name": "feeScales",
          "type": "uint24[4]"
        },
        {
          "internalType": "address",
          "name": "feeTo",
          "type": "address"
        }
      ],
      "name": "setFeeConfig",
      "outputs": [],
      "stateMutability": "nonpayable",
      "type": "function"
    },
    {
      "inputs": [],
      "name": "signatureInProgress",
      "outputs": [
        {
          "internalType": "uint256",
          "name": "",
          "type": "uint256"
        }
      ],
      "stateMutability": "view",
      "type": "function"
    },
    {
      "inputs": [
        {
          "internalType": "address",
          "name": "serviceProvider",
          "type": "address"
        },
        {
          "internalType": "uint256",
          "name": "orderNonce",
          "type": "uint256"
        }
      ],
      "name": "submitOrder",
      "outputs": [],
      "stateMutability": "nonpayable",
      "type": "function"
    },
    {
      "inputs": [
        {
          "internalType": "address",
          "name": "newOwner",
          "type": "address"
        }
      ],
      "name": "transferOwnership",
      "outputs": [],
      "stateMutability": "nonpayable",
      "type": "function"
    },
    {
      "inputs": [],
      "name": "withdrowEscrowFundWithClient",
      "outputs": [],
      "stateMutability": "nonpayable",
      "type": "function"
    },
    {
      "stateMutability": "payable",
      "type": "receive"
    }
  ],
  "bytecode": {
    "object": "0x60c06040526702c68af0bb1400006001556001600b553480156200002257600080fd5b50604051620024123803806200241283398101604081905262000045916200029f565b60016000908155655af3107a40006080527ff0c57e16840df040f15088dc2f81fe391c3923bec73e23a9662efc9c229c6a008054909168010000000000000000820460ff1615916001600160401b03169081158015620000a25750825b90506000826001600160401b03166001148015620000bf5750303b155b905081158015620000ce575080155b15620000ed5760405163f92ee8a960e01b815260040160405180910390fd5b84546001600160401b031916600117855583156200011c57845460ff60401b1916680100000000000000001785555b620001273362000187565b6001600160a01b03861660a05283156200017b57845460ff60401b19168555604051600181527fc7f505b2f371ae2175ee4913f4499e1f2633a7b5936321eed1cdaeb6115181d29060200160405180910390a15b505050505050620002d1565b620001916200019f565b6200019c81620001f0565b50565b7ff0c57e16840df040f15088dc2f81fe391c3923bec73e23a9662efc9c229c6a005468010000000000000000900460ff16620001ee57604051631afcd79f60e31b815260040160405180910390fd5b565b620001fa6200019f565b6001600160a01b0381166200022957604051631e4fbdf760e01b81526000600482015260240160405180910390fd5b6200019c817f9016d09d72d40fdae2fd8ceac6b6234c7706214fd39c1cd1e609a0528c19930080546001600160a01b031981166001600160a01b03848116918217845560405192169182907f8be0079c531659141344cd1fd0a4f28419497f9722a3daafe3b4186f6b6457e090600090a3505050565b600060208284031215620002b257600080fd5b81516001600160a01b0381168114620002ca57600080fd5b9392505050565b60805160a0516120f86200031a600039600081816103ba015281816108b501528181610ad00152610f9601526000818161046c01528181610d810152611ab001526120f86000f3fe6080604052600436106101445760003560e01c8063757a2666116100b65780638e9856f91161006f5780638e9856f91461045a5780639d2166ae1461048e578063aecde1ee146104ae578063c7a9654a146104c1578063d6785094146104d7578063f2fde38b146104f757600080fd5b8063757a2666146103685780637586e19d1461038857806380c19936146103a8578063818c18a2146103f45780638374d1e8146104075780638da5cb5b1461041d57600080fd5b80635652ba2d116101085780635652ba2d146102795780635693e1521461029d5780636a206137146102bf5780636aa69efd146102df5780636f61c744146102f2578063715018a61461035357600080fd5b806301e5881314610150578063025a4865146101725780631674e3101461019257806319e88a3d146101a75780631e5eb1d0146101c757600080fd5b3661014b57005b600080fd5b34801561015c57600080fd5b5061017061016b366004611d89565b610517565b005b34801561017e57600080fd5b5061017061018d366004611db3565b61072b565b34801561019e57600080fd5b50610170610752565b3480156101b357600080fd5b506101706101c2366004611e05565b610790565b3480156101d357600080fd5b50600954600a546102249162ffffff8082169263010000008304821692600160301b8104831692600160481b820416916001600160a01b03600160601b90920482169160ff82169161010090041687565b6040805162ffffff98891681529688166020880152948716948601949094529190941660608401526001600160a01b039384166080840152151560a08301529190911660c082015260e0015b60405180910390f35b34801561028557600080fd5b5061028f60001981565b604051908152602001610270565b3480156102a957600080fd5b503360009081526003602052604090205461028f565b3480156102cb57600080fd5b506101706102da366004611d89565b6107c1565b6101706102ed366004611d89565b610924565b3480156102fe57600080fd5b50610307610b07565b604051610270919081516001600160a01b031681526020808301511515908201526040808301511515908201526060808301511515908201526080918201519181019190915260a00190565b34801561035f57600080fd5b50610170610c06565b34801561037457600080fd5b50610170610383366004611d89565b610c1a565b34801561039457600080fd5b5061028f6103a3366004611e99565b610d4f565b3480156103b457600080fd5b506103dc7f000000000000000000000000000000000000000000000000000000000000000081565b6040516001600160a01b039091168152602001610270565b610170610402366004611eb4565b610d6f565b34801561041357600080fd5b5061028f60015481565b34801561042957600080fd5b507f9016d09d72d40fdae2fd8ceac6b6234c7706214fd39c1cd1e609a0528c199300546001600160a01b03166103dc565b34801561046657600080fd5b5061028f7f000000000000000000000000000000000000000000000000000000000000000081565b34801561049a57600080fd5b5061028f6104a9366004611edd565b610def565b6101706104bc366004611ef6565b610dfd565b3480156104cd57600080fd5b5061028f600b5481565b3480156104e357600080fd5b506101706104f2366004611f82565b610f81565b34801561050357600080fd5b50610170610512366004611e99565b611024565b61052082610d4f565b811115610548576040516358172fed60e01b8152600481018290526024015b60405180910390fd5b60006105566007848461105f565b90506000610567600785858561108a565b6001600160a01b0316148061059a57506001600160a01b03831661058e600785858561108a565b6001600160a01b031614155b156105b85760405163b12bbbfb60e01b815260040160405180910390fd5b6105e1335b6001600160a01b031660009081526004602052604090205460a01c60019081161490565b6105fe5760405163390bbec760e11b815260040160405180910390fd5b600461060d60078585856110e2565b1660ff16600014610631576040516378b58d8360e01b815260040160405180910390fd5b6001600160a01b0383811660009081526007602090815260408083208684528252808320858452909152902054161561067d576040516314141a6f60e21b815260040160405180910390fd5b33600090815260036020526040812054116106e65760405162461bcd60e51b8152602060048201526024808201527f546865207573657220657363726f772066756e642062616c616e6365206973206044820152637a65726f60e01b606482015260840161053f565b6001600160a01b03831660009081526007602090815260408083208584528252808320848452909152902080546001600160a01b03191633179055505050565b505050565b61073361111c565b801561074757610744600933611177565b50565b6107446009336111c4565b3360009081526004602052604090205460c21c6001908116036107885760405163122296a960e21b815260040160405180910390fd5b61074461120c565b61079861111c565b6107bd82336001600160a01b0384166107b157336107b3565b835b6009929190611252565b5050565b60006107cf6007848461105f565b905060046107e060078585856110e2565b1660ff16600014610804576040516378b58d8360e01b815260040160405180910390fd5b6001600160a01b03831660009081526007602090815260408083208584528252808320848452909152902060030180546001600160601b0316600160601b3302179055336001600160a01b03841614801561087c5750610867600784848461108a565b6001600160a01b0316336001600160a01b0316145b1561088c5761088a816113aa565b505b600061089b600785858561148e565b60405163534b38d360e11b81529091506001600160a01b037f0000000000000000000000000000000000000000000000000000000000000000169063a69671a6906108ec9033908590600401611f9a565b600060405180830381600087803b15801561090657600080fd5b505af115801561091a573d6000803e3d6000fd5b5050505050505050565b336001600160a01b038316146109885760405162461bcd60e51b815260206004820152602360248201527f5468652063616c6c6572206d75737420626520736572766963652070726f76696044820152623232b960e91b606482015260840161053f565b6001600160a01b03821660009081526006602052604081205481906109bf9085906109b59060019061206d565b600791908661148e565b90506109cb6009611596565b15610a925760006109dc60096115ad565b6109e660096115cb565b8360e001516001600160601b03160281610a0257610a02612080565b04600114610a3a57620186a0610a1860096115cb565b8360e001516001600160601b03160281610a3457610a34612080565b04610a65565b6103e8610a4760096115cb565b8360e001516001600160601b03160281610a6357610a63612080565b045b9050808260e001516001600160601b0316039250610a8c610a8660096115e9565b82611600565b50610aa3565b8060e001516001600160601b031691505b610aac836113aa565b508051610ab99083611600565b60405163534b38d360e11b81526001600160a01b037f0000000000000000000000000000000000000000000000000000000000000000169063a69671a6906108ec9033908590600401611f9a565b6040805160a08101825260008082526020820181905291810182905260608101829052608081019190915260006040518060a00160405280336001600160a01b03168152602001610b623360046110bd90919063ffffffff16565b15158152602001610b946004336001600160a01b03166000908152602091909152604090205460a11c60019081161490565b15158152602001610bc66004336001600160a01b03166000908152602091909152604090205460a21c60019081161490565b15158152602001610bf86004336001600160a01b03166000908152602091909152604090205460c11c63ffffffff1690565b63ffffffff16905292915050565b610c0e61111c565b610c18600061161d565b565b6000610c286007848461105f565b90506000610c39600785858561108a565b6001600160a01b03161480610c6c57506001600160a01b038316610c60600785858561108a565b6001600160a01b031614155b15610c8a5760405163b12bbbfb60e01b815260040160405180910390fd5b3360009081526004602052604090205460a01c600190811614610cc05760405163390bbec760e11b815260040160405180910390fd5b6004610ccf60078585856110e2565b1660ff16600014610cf3576040516378b58d8360e01b815260040160405180910390fd5b6001600160a01b0383811660009081526007602090815260408083208684528252808320858452909152902054163314610d405760405163790033d360e11b815260040160405180910390fd5b6107266007848484600161168e565b6001600160a01b0381166000908152600660205260408120545b92915050565b336000908152600360205260409020547f0000000000000000000000000000000000000000000000000000000000000000610db36001600160801b03841683612096565b1015610ddd57604051632b109a5360e11b81526001600160801b038316600482015260240161053f565b610726826001600160801b0316611753565b6000610d696007338461105f565b600b54600114610e4f5760405162461bcd60e51b815260206004820152601960248201527f5369676e617475726520697320696e6e2070726f677265737300000000000000604482015260640161053f565b6002600b55610e5d336105bd565b1580610e7f57503360009081526004602052604090205460a11c600190811614155b15610e9d5760405163390bbec760e11b815260040160405180910390fd5b856001600160601b0316341015610ec9576040516365bc667160e11b815234600482015260240161053f565b6000610ed433610d4f565b90506000610ee5600733848961108a565b6001600160a01b031614610f0c5760405163b12bbbfb60e01b815260040160405180910390fd5b610f18858585856117a5565b6001600160a01b0316336001600160a01b031614610f4c57604051633335be5d60e11b81526004810186905260240161053f565b610f5e6007600583338c8c8c8c6117ef565b610f71876001600160601b031686611aac565b50506001600b5550505050505050565b610f8c600482611b70565b6001600160a01b037f00000000000000000000000000000000000000000000000000000000000000001663f95577ed610fc86020840184611e99565b6040516001600160e01b031960e084901b1681526001600160a01b039091166004820152602401600060405180830381600087803b15801561100957600080fd5b505af115801561101d573d6000803e3d6000fd5b5050505050565b61102c61111c565b6001600160a01b03811661105657604051631e4fbdf760e01b81526000600482015260240161053f565b6107448161161d565b6001600160a01b03909116600090815260019092016020908152604080842092845291905290205490565b6001600160a01b039283166000908152602094855260408082209382529285528281209181529352909120600101541690565b6001600160a01b03166000908152602091909152604090205460a01c60019081161490565b6001600160a01b0390921660009081526020938452604080822092825291845281812092815291909252205460ff600160a01b9091041690565b3361114e7f9016d09d72d40fdae2fd8ceac6b6234c7706214fd39c1cd1e609a0528c199300546001600160a01b031690565b6001600160a01b031614610c185760405163118cdaa760e01b815233600482015260240161053f565b81546001600160a01b03828116600160601b90920416146111b15781546001600160601b0316600160601b6001600160a01b038316021782555b506001908101805460ff19169091179055565b81546001600160a01b03828116600160601b90920416146111fe5781546001600160601b0316600160601b6001600160a01b038316021782555b50600101805460ff19169055565b6000611216611cc5565b33600081815260036020526040902054906112319082611600565b505033600090815260036020526040812055600161124f6001600055565b90565b83546001600160a01b03838116600160601b909204161461128c5783546001600160601b0316600160601b6001600160a01b038416021784555b6020830151835162ffffff9182169116108015906112b857506040830151835162ffffff918216911611155b6113045760405162461bcd60e51b815260206004820181905260248201527f4665655363616c652063616e6e6f742065786365656420746865206c696d6974604482015260640161053f565b825184546020850151604086015160609096015162ffffff918216600160481b026bffffff000000ffffff000000199093169382166301000000026bffffff0000000000000000001916939093179190911768ffffff000000ffffff1916948116600160301b0262ffffff19169490941793169290921783555060019091018054610100600160a81b0319166101006001600160a01b0390931692909202919091179055565b60006113b4611cc5565b3360009081526002602090815260408083208584529091528120546001600160801b031690036113f7576040516309e57e0160e01b815260040160405180910390fd5b3360008181526002602090815260408083208684528252918290205491516001600160801b0390921680835292859290917f1105a33f299f823b07c2be699bc5c9b002a93efce4127540ac5eaf12759fc312910160405180910390a35050336000908152600260209081526040808320848452909152902080546001600160801b031916905560016114896001600055565b919050565b6040805161012081018252600080825260208201819052918101829052606081018290526080810182905260a0810182905260c0810182905260e08101829052610100810191909152506001600160a01b039283166000908152602094855260408082209382529285528281209181529084528190208151610120810183528154808516825260ff600160a01b8204811696830196909652600160a81b81049095169281019290925263ffffffff600160b01b850481166060840152600160d01b90940490931660808201526001830154821660a0820152600283015460c08201526003909201546001600160601b03811660e0840152600160601b90041661010082015290565b60006115a182611cef565b50979650505050505050565b60006115b882611cef565b505062ffffff9094169695505050505050565b60006115d682611cef565b505062ffffff9093169695505050505050565b60006115f482611cef565b98975050505050505050565b60008060008084865af1806107265763b1c003de60005260046000fd5b7f9016d09d72d40fdae2fd8ceac6b6234c7706214fd39c1cd1e609a0528c19930080546001600160a01b031981166001600160a01b03848116918217845560405192169182907f8be0079c531659141344cd1fd0a4f28419497f9722a3daafe3b4186f6b6457e090600090a3505050565b6001600160a01b0380851660008181526020888152604080832088845282528083208784529091529020600190810154909216146116ca575060005b6001600160a01b0385166000908152602087815260408083208784528252808320868452909152902054600160a81b900460ff16600103611709575060005b506001600160a01b03939093166000908152602094855260408082209382529285528281209181529352909120805460ff60a01b191660ff92909216600160a01b02919091179055565b336000818152600360209081526040808320805486019055518481529192917f1dcbb3c90dc9b519c12ac630f91bb3d22ebe3e617613e1bfad83f867be24b81d910160405180910390a2506001919050565b60006040518560005260ff85166020528360405282606052602060016080600060015afa5191503d6117df57638baa579f6000526004601cfd5b6000606052604052949350505050565b60405180610120016040528060006001600160a01b031681526020016280000060ff168152602001600260ff1681526020014263ffffffff1681526020018563ffffffff168152602001866001600160a01b03168152602001838152602001846001600160601b0316815260200160006001600160a01b0316815250886000016000876001600160a01b03166001600160a01b031681526020019081526020016000206000888152602001908152602001600020600083815260200190815260200160002060008201518160000160006101000a8154816001600160a01b0302191690836001600160a01b0316021790555060208201518160000160146101000a81548160ff021916908360ff16021790555060408201518160000160156101000a81548160ff021916908360ff16021790555060608201518160000160166101000a81548163ffffffff021916908363ffffffff160217905550608082015181600001601a6101000a81548163ffffffff021916908363ffffffff16021790555060a08201518160010160006101000a8154816001600160a01b0302191690836001600160a01b0316021790555060c0820151816002015560e08201518160030160006101000a8154816001600160601b0302191690836001600160601b0316021790555061010082015181600301600c6101000a8154816001600160a01b0302191690836001600160a01b03160217905550905050428463ffffffff1611611a2457637811aa5560e01b60005260046000fd5b6001600160a01b038516600090815260018901602090815260408083208984529091529020819055611a568786611d42565b60018463ffffffff16866001600160a01b03167f73e539e45c9126603bfa7101742c49cfd2d217cb262688c029df898e823ee21b89604051611a9a91815260200190565b60405180910390a45050505050505050565b60007f0000000000000000000000000000000000000000000000000000000000000000836001600160801b03161015611b03576040516365bc667160e11b81526001600160801b038416600482015260240161053f565b33600081815260026020908152604080832086845282529182902080546001600160801b0319166001600160801b03881617905590513481527f1dcbb3c90dc9b519c12ac630f91bb3d22ebe3e617613e1bfad83f867be24b81d910160405180910390a250600192915050565b6001611ba883611b836020850185611e99565b6001600160a01b03166000908152602091909152604090205460a21c60019081161490565b15611bb1575060005b611bc16040830160208401611db3565b158015611bdb5750611bd96060830160408401611db3565b155b15611be4575060005b426000600160c21b60c183901b600160a21b611c066060880160408901611db3565b611c11576000611c17565b600160a11b5b611c276040890160208a01611db3565b611c32576000611c38565b600160a01b5b611c4560208a018a611e99565b6001600160a01b03161717171717905080856000611c666020880188611e99565b6001600160a01b0316815260208101919091526040016000205582611c9657630343263d60e61b60005260046000fd5b81847f0ad17e9dc2c6686d825217c155508a34c618e491c8584ec8909a829d69b1cf0660606000a35050505050565b600260005403611ce857604051633ee5aeb560e01b815260040160405180910390fd5b6002600055565b805460019091015462ffffff8083169363010000008404821693600160301b8104831693600160481b820490931692600160601b9091046001600160a01b039081169260ff831692610100900490911690565b6001600160a01b038116600090815260018301602052604081208054909190611d6a906120a9565b909155505050565b80356001600160a01b038116811461148957600080fd5b60008060408385031215611d9c57600080fd5b611da583611d72565b946020939093013593505050565b600060208284031215611dc557600080fd5b81358015158114611dd557600080fd5b9392505050565b634e487b7160e01b600052604160045260246000fd5b803562ffffff8116811461148957600080fd5b60008060a08385031215611e1857600080fd5b83601f840112611e2757600080fd5b6040516080810181811067ffffffffffffffff82111715611e4a57611e4a611ddc565b604052806080850186811115611e5f57600080fd5b855b81811015611e8057611e7281611df2565b835260209283019201611e61565b50829450611e8d81611d72565b93505050509250929050565b600060208284031215611eab57600080fd5b611dd582611d72565b600060208284031215611ec657600080fd5b81356001600160801b0381168114611dd557600080fd5b600060208284031215611eef57600080fd5b5035919050565b600080600080600080600060e0888a031215611f1157600080fd5b873563ffffffff81168114611f2557600080fd5b965060208801356001600160601b0381168114611f4157600080fd5b95506040880135945060608801359350608088013560ff81168114611f6557600080fd5b9699959850939692959460a0840135945060c09093013592915050565b600060a08284031215611f9457600080fd5b50919050565b6001600160a01b03838116825282511660208083019190915282015160ff16604080830191909152820151610140820190611fda606084018260ff169052565b50606083015163ffffffff8116608084015250608083015163ffffffff811660a08401525060a08301516001600160a01b03811660c08401525060c083015160e083015260e083015161010061203a818501836001600160601b03169052565b8401516001600160a01b0381166101208501529050509392505050565b634e487b7160e01b600052601160045260246000fd5b81810381811115610d6957610d69612057565b634e487b7160e01b600052601260045260246000fd5b80820180821115610d6957610d69612057565b6000600182016120bb576120bb612057565b506001019056fea2646970667358221220322692ac6fe3e2146f84478305cad926d813f9a12fa2bcbfedc8ce1f4db3ade764736f6c63430008150033",
    "linkReferences": {}
  },
  "methodIdentifiers": {
    "CLIENT_ESCROW_AMOUNT()": "8374d1e8",
    "MAX_ESCROW_AMOUNT()": "5652ba2d",
    "MIN_ESCROW_AMOUNT()": "8e9856f9",
    "WonderJobArbitration()": "80c19936",
    "acceptOrder(address,uint256)": "01e58813",
    "cancelOrder(address,uint256)": "6a206137",
    "completeOrder(address,bytes32)": "6aa69efd",
    "createOrder(uint32,uint96,bytes32,bytes32,uint8,bytes32,bytes32)": "aecde1ee",
    "createUser((address,bool,bool,bool,uint256))": "d6785094",
    "depositEscrowFundWithClient(uint128)": "818c18a2",
    "feeConfig()": "1e5eb1d0",
    "getClientEscrowFundBalanceof()": "5693e152",
    "getOrderId(uint256)": "9d2166ae",
    "getOrderNonce(address)": "7586e19d",
    "getUserProfile()": "6f61c744",
    "owner()": "8da5cb5b",
    "renounceOwnership()": "715018a6",
    "setFee(bool)": "025a4865",
    "setFeeConfig(uint24[4],address)": "19e88a3d",
    "signatureInProgress()": "c7a9654a",
    "submitOrder(address,uint256)": "757a2666",
    "transferOwnership(address)": "f2fde38b",
    "withdrowEscrowFundWithClient()": "1674e310"
  },
  "id": 31
}