{
  "abi": [
    {
      "inputs": [
        {
          "internalType": "address",
          "name": "IWonderJobArbitrationAddress",
          "type": "address"
        }
      ],
      "stateMutability": "nonpayable",
      "type": "constructor"
    },
    {
      "inputs": [],
      "name": "ClientIsTakeOrder",
      "type": "error"
    },
    {
      "inputs": [],
      "name": "EscrowFundsBalanceOfWasZero",
      "type": "error"
    },
    {
      "inputs": [
        {
          "internalType": "uint128",
          "name": "escrowAmount",
          "type": "uint128"
        }
      ],
      "name": "InsufficientEscrowAmount",
      "type": "error"
    },
    {
      "inputs": [
        {
          "internalType": "uint256",
          "name": "depositAmount",
          "type": "uint256"
        }
      ],
      "name": "InsufficientFunds",
      "type": "error"
    },
    {
      "inputs": [],
      "name": "InvalidInitialization",
      "type": "error"
    },
    {
      "inputs": [],
      "name": "InvalidOrderClient",
      "type": "error"
    },
    {
      "inputs": [
        {
          "internalType": "uint256",
          "name": "orderNonce",
          "type": "uint256"
        }
      ],
      "name": "InvalidOrderNonce",
      "type": "error"
    },
    {
      "inputs": [
        {
          "internalType": "bytes32",
          "name": "signatureHash",
          "type": "bytes32"
        }
      ],
      "name": "InvalidSignature",
      "type": "error"
    },
    {
      "inputs": [],
      "name": "NotInitializing",
      "type": "error"
    },
    {
      "inputs": [],
      "name": "OrderAccepted",
      "type": "error"
    },
    {
      "inputs": [],
      "name": "OrderException",
      "type": "error"
    },
    {
      "inputs": [],
      "name": "OrderInModify",
      "type": "error"
    },
    {
      "inputs": [
        {
          "internalType": "address",
          "name": "owner",
          "type": "address"
        }
      ],
      "name": "OwnableInvalidOwner",
      "type": "error"
    },
    {
      "inputs": [
        {
          "internalType": "address",
          "name": "account",
          "type": "address"
        }
      ],
      "name": "OwnableUnauthorizedAccount",
      "type": "error"
    },
    {
      "inputs": [],
      "name": "ReentrancyGuardReentrantCall",
      "type": "error"
    },
    {
      "inputs": [],
      "name": "UserHasNoAuthorization",
      "type": "error"
    },
    {
      "anonymous": false,
      "inputs": [
        {
          "indexed": false,
          "internalType": "uint256",
          "name": "feeAmount",
          "type": "uint256"
        },
        {
          "indexed": false,
          "internalType": "uint256",
          "name": "completeRewardAmount",
          "type": "uint256"
        },
        {
          "indexed": false,
          "internalType": "uint256",
          "name": "price",
          "type": "uint256"
        }
      ],
      "name": "A",
      "type": "event"
    },
    {
      "anonymous": false,
      "inputs": [
        {
          "indexed": true,
          "internalType": "address",
          "name": "publisher",
          "type": "address"
        },
        {
          "indexed": true,
          "internalType": "uint256",
          "name": "orderDeadline",
          "type": "uint256"
        },
        {
          "indexed": true,
          "internalType": "uint256",
          "name": "orderStatus",
          "type": "uint256"
        },
        {
          "indexed": false,
          "internalType": "uint256",
          "name": "orderNonce",
          "type": "uint256"
        }
      ],
      "name": "CreateOrder",
      "type": "event"
    },
    {
      "anonymous": false,
      "inputs": [
        {
          "indexed": true,
          "internalType": "address",
          "name": "sender",
          "type": "address"
        },
        {
          "indexed": false,
          "internalType": "uint256",
          "name": "depositAmount",
          "type": "uint256"
        }
      ],
      "name": "DepositEscrowFund",
      "type": "event"
    },
    {
      "anonymous": false,
      "inputs": [
        {
          "indexed": false,
          "internalType": "uint64",
          "name": "version",
          "type": "uint64"
        }
      ],
      "name": "Initialized",
      "type": "event"
    },
    {
      "anonymous": false,
      "inputs": [
        {
          "indexed": true,
          "internalType": "address",
          "name": "previousOwner",
          "type": "address"
        },
        {
          "indexed": true,
          "internalType": "address",
          "name": "newOwner",
          "type": "address"
        }
      ],
      "name": "OwnershipTransferred",
      "type": "event"
    },
    {
      "anonymous": false,
      "inputs": [
        {
          "indexed": true,
          "internalType": "address",
          "name": "sender",
          "type": "address"
        },
        {
          "indexed": true,
          "internalType": "bytes32",
          "name": "orderId",
          "type": "bytes32"
        },
        {
          "indexed": false,
          "internalType": "uint256",
          "name": "depositAmount",
          "type": "uint256"
        }
      ],
      "name": "WithdrowEscrowFund",
      "type": "event"
    },
    {
      "inputs": [],
      "name": "CLIENT_ESCROW_AMOUNT",
      "outputs": [
        {
          "internalType": "uint256",
          "name": "",
          "type": "uint256"
        }
      ],
      "stateMutability": "view",
      "type": "function"
    },
    {
      "inputs": [],
      "name": "MAX_ESCROW_AMOUNT",
      "outputs": [
        {
          "internalType": "uint256",
          "name": "",
          "type": "uint256"
        }
      ],
      "stateMutability": "view",
      "type": "function"
    },
    {
      "inputs": [],
      "name": "MIN_ESCROW_AMOUNT",
      "outputs": [
        {
          "internalType": "uint256",
          "name": "",
          "type": "uint256"
        }
      ],
      "stateMutability": "view",
      "type": "function"
    },
    {
      "inputs": [],
      "name": "WonderJobArbitration",
      "outputs": [
        {
          "internalType": "contract IWonderJobArbitration",
          "name": "",
          "type": "address"
        }
      ],
      "stateMutability": "view",
      "type": "function"
    },
    {
      "inputs": [
        {
          "internalType": "address",
          "name": "serviceProvider",
          "type": "address"
        },
        {
          "internalType": "uint256",
          "name": "orderNonce",
          "type": "uint256"
        }
      ],
      "name": "acceptOrder",
      "outputs": [],
      "stateMutability": "nonpayable",
      "type": "function"
    },
    {
      "inputs": [
        {
          "internalType": "address",
          "name": "serviceProvider",
          "type": "address"
        },
        {
          "internalType": "uint256",
          "name": "orderNonce",
          "type": "uint256"
        }
      ],
      "name": "cancelOrder",
      "outputs": [],
      "stateMutability": "nonpayable",
      "type": "function"
    },
    {
      "inputs": [
        {
          "internalType": "bytes32",
          "name": "orderId",
          "type": "bytes32"
        }
      ],
      "name": "completeOrder",
      "outputs": [],
      "stateMutability": "payable",
      "type": "function"
    },
    {
      "inputs": [
        {
          "internalType": "uint32",
          "name": "orderDeadline",
          "type": "uint32"
        },
        {
          "internalType": "uint96",
          "name": "orderPrice",
          "type": "uint96"
        },
        {
          "internalType": "bytes32",
          "name": "ipfsLink",
          "type": "bytes32"
        },
        {
          "internalType": "bytes32",
          "name": "hash",
          "type": "bytes32"
        },
        {
          "internalType": "uint8",
          "name": "v",
          "type": "uint8"
        },
        {
          "internalType": "bytes32",
          "name": "r",
          "type": "bytes32"
        },
        {
          "internalType": "bytes32",
          "name": "s",
          "type": "bytes32"
        }
      ],
      "name": "createOrder",
      "outputs": [],
      "stateMutability": "payable",
      "type": "function"
    },
    {
      "inputs": [
        {
          "components": [
            {
              "internalType": "address",
              "name": "userAddress",
              "type": "address"
            },
            {
              "internalType": "bool",
              "name": "isCustomer",
              "type": "bool"
            },
            {
              "internalType": "bool",
              "name": "isServiceProvider",
              "type": "bool"
            },
            {
              "internalType": "bool",
              "name": "isRegistered",
              "type": "bool"
            },
            {
              "internalType": "uint256",
              "name": "creationTime",
              "type": "uint256"
            }
          ],
          "internalType": "struct User",
          "name": "user",
          "type": "tuple"
        }
      ],
      "name": "createUser",
      "outputs": [],
      "stateMutability": "nonpayable",
      "type": "function"
    },
    {
      "inputs": [
        {
          "internalType": "uint128",
          "name": "escrowAmount",
          "type": "uint128"
        }
      ],
      "name": "depositEscrowFundWithClient",
      "outputs": [],
      "stateMutability": "payable",
      "type": "function"
    },
    {
      "inputs": [],
      "name": "feeConfig",
      "outputs": [
        {
          "internalType": "uint24",
          "name": "feeDecimal",
          "type": "uint24"
        },
        {
          "internalType": "uint24",
          "name": "feeScale",
          "type": "uint24"
        },
        {
          "internalType": "uint24",
          "name": "feeMaxScale",
          "type": "uint24"
        },
        {
          "internalType": "uint24",
          "name": "feeMinScale",
          "type": "uint24"
        },
        {
          "internalType": "address",
          "name": "lastExecutor",
          "type": "address"
        },
        {
          "internalType": "bool",
          "name": "feeOn",
          "type": "bool"
        },
        {
          "internalType": "address",
          "name": "feeTo",
          "type": "address"
        }
      ],
      "stateMutability": "view",
      "type": "function"
    },
    {
      "inputs": [
        {
          "internalType": "address",
          "name": "client",
          "type": "address"
        }
      ],
      "name": "getClientEscrowFundBalanceof",
      "outputs": [
        {
          "internalType": "uint256",
          "name": "",
          "type": "uint256"
        }
      ],
      "stateMutability": "view",
      "type": "function"
    },
    {
      "inputs": [
        {
          "internalType": "uint256",
          "name": "orderNonce",
          "type": "uint256"
        }
      ],
      "name": "getOrderId",
      "outputs": [
        {
          "internalType": "bytes32",
          "name": "",
          "type": "bytes32"
        }
      ],
      "stateMutability": "view",
      "type": "function"
    },
    {
      "inputs": [
        {
          "internalType": "address",
          "name": "user",
          "type": "address"
        }
      ],
      "name": "getOrderNonce",
      "outputs": [
        {
          "internalType": "uint256",
          "name": "",
          "type": "uint256"
        }
      ],
      "stateMutability": "view",
      "type": "function"
    },
    {
      "inputs": [],
      "name": "getUserProfile",
      "outputs": [
        {
          "components": [
            {
              "internalType": "address",
              "name": "userAddress",
              "type": "address"
            },
            {
              "internalType": "bool",
              "name": "isCustomer",
              "type": "bool"
            },
            {
              "internalType": "bool",
              "name": "isServiceProvider",
              "type": "bool"
            },
            {
              "internalType": "bool",
              "name": "isRegistered",
              "type": "bool"
            },
            {
              "internalType": "uint256",
              "name": "creationTime",
              "type": "uint256"
            }
          ],
          "internalType": "struct User",
          "name": "_user",
          "type": "tuple"
        }
      ],
      "stateMutability": "view",
      "type": "function"
    },
    {
      "inputs": [],
      "name": "owner",
      "outputs": [
        {
          "internalType": "address",
          "name": "",
          "type": "address"
        }
      ],
      "stateMutability": "view",
      "type": "function"
    },
    {
      "inputs": [],
      "name": "renounceOwnership",
      "outputs": [],
      "stateMutability": "nonpayable",
      "type": "function"
    },
    {
      "inputs": [
        {
          "internalType": "bool",
          "name": "enable",
          "type": "bool"
        }
      ],
      "name": "setFee",
      "outputs": [],
      "stateMutability": "nonpayable",
      "type": "function"
    },
    {
      "inputs": [
        {
          "internalType": "uint24[4]",
          "name": "feeScales",
          "type": "uint24[4]"
        },
        {
          "internalType": "address",
          "name": "feeTo",
          "type": "address"
        }
      ],
      "name": "setFeeConfig",
      "outputs": [],
      "stateMutability": "nonpayable",
      "type": "function"
    },
    {
      "inputs": [
        {
          "internalType": "address",
          "name": "serviceProvider",
          "type": "address"
        },
        {
          "internalType": "uint256",
          "name": "orderNonce",
          "type": "uint256"
        }
      ],
      "name": "submitOrder",
      "outputs": [],
      "stateMutability": "nonpayable",
      "type": "function"
    },
    {
      "inputs": [
        {
          "internalType": "address",
          "name": "newOwner",
          "type": "address"
        }
      ],
      "name": "transferOwnership",
      "outputs": [],
      "stateMutability": "nonpayable",
      "type": "function"
    },
    {
      "inputs": [],
      "name": "withdrowEscrowFundWithClient",
      "outputs": [],
      "stateMutability": "nonpayable",
      "type": "function"
    },
    {
      "stateMutability": "payable",
      "type": "receive"
    }
  ],
  "bytecode": {
    "object": "0x60c06040526702c68af0bb1400006001553480156200001d57600080fd5b506040516200238a3803806200238a83398101604081905262000040916200029a565b60016000908155655af3107a40006080527ff0c57e16840df040f15088dc2f81fe391c3923bec73e23a9662efc9c229c6a008054909168010000000000000000820460ff1615916001600160401b031690811580156200009d5750825b90506000826001600160401b03166001148015620000ba5750303b155b905081158015620000c9575080155b15620000e85760405163f92ee8a960e01b815260040160405180910390fd5b84546001600160401b031916600117855583156200011757845460ff60401b1916680100000000000000001785555b620001223362000182565b6001600160a01b03861660a05283156200017657845460ff60401b19168555604051600181527fc7f505b2f371ae2175ee4913f4499e1f2633a7b5936321eed1cdaeb6115181d29060200160405180910390a15b505050505050620002cc565b6200018c6200019a565b6200019781620001eb565b50565b7ff0c57e16840df040f15088dc2f81fe391c3923bec73e23a9662efc9c229c6a005468010000000000000000900460ff16620001e957604051631afcd79f60e31b815260040160405180910390fd5b565b620001f56200019a565b6001600160a01b0381166200022457604051631e4fbdf760e01b81526000600482015260240160405180910390fd5b62000197817f9016d09d72d40fdae2fd8ceac6b6234c7706214fd39c1cd1e609a0528c19930080546001600160a01b031981166001600160a01b03848116918217845560405192169182907f8be0079c531659141344cd1fd0a4f28419497f9722a3daafe3b4186f6b6457e090600090a3505050565b600060208284031215620002ad57600080fd5b81516001600160a01b0381168114620002c557600080fd5b9392505050565b60805160a051612075620003156000396000818161037a0152818161088a01528181610d200152610f2601526000818161042c01528181610b6501526119b501526120756000f3fe6080604052600436106101395760003560e01c806380c19936116100ab5780639d2166ae1161006f5780639d2166ae1461044e578063aecde1ee1461046e578063d678509414610481578063ddf5df45146104a1578063ecb9a7a5146104b4578063f2fde38b146104ea57600080fd5b806380c1993614610368578063818c18a2146103b45780638374d1e8146103c75780638da5cb5b146103dd5780638e9856f91461041a57600080fd5b80635652ba2d116100fd5780635652ba2d1461026e5780636a206137146102925780636f61c744146102b2578063715018a614610313578063757a2666146103285780637586e19d1461034857600080fd5b806301e5881314610145578063025a4865146101675780631674e3101461018757806319e88a3d1461019c5780631e5eb1d0146101bc57600080fd5b3661014057005b600080fd5b34801561015157600080fd5b50610165610160366004611d19565b61050a565b005b34801561017357600080fd5b50610165610182366004611d43565b610700565b34801561019357600080fd5b50610165610727565b3480156101a857600080fd5b506101656101b7366004611d95565b610765565b3480156101c857600080fd5b50600954600a546102199162ffffff8082169263010000008304821692600160301b8104831692600160481b820416916001600160a01b03600160601b90920482169160ff82169161010090041687565b6040805162ffffff98891681529688166020880152948716948601949094529190941660608401526001600160a01b039384166080840152151560a08301529190911660c082015260e0015b60405180910390f35b34801561027a57600080fd5b5061028460001981565b604051908152602001610265565b34801561029e57600080fd5b506101656102ad366004611d19565b610796565b3480156102be57600080fd5b506102c76108f9565b604051610265919081516001600160a01b031681526020808301511515908201526040808301511515908201526060808301511515908201526080918201519181019190915260a00190565b34801561031f57600080fd5b506101656109f8565b34801561033457600080fd5b50610165610343366004611d19565b610a0c565b34801561035457600080fd5b50610284610363366004611e29565b610b33565b34801561037457600080fd5b5061039c7f000000000000000000000000000000000000000000000000000000000000000081565b6040516001600160a01b039091168152602001610265565b6101656103c2366004611e44565b610b53565b3480156103d357600080fd5b5061028460015481565b3480156103e957600080fd5b507f9016d09d72d40fdae2fd8ceac6b6234c7706214fd39c1cd1e609a0528c199300546001600160a01b031661039c565b34801561042657600080fd5b506102847f000000000000000000000000000000000000000000000000000000000000000081565b34801561045a57600080fd5b50610284610469366004611e6d565b610bd3565b61016561047c366004611e86565b610be1565b34801561048d57600080fd5b5061016561049c366004611f12565b610d0b565b6101656104af366004611e6d565b610dae565b3480156104c057600080fd5b506102846104cf366004611e29565b6001600160a01b031660009081526003602052604090205490565b3480156104f657600080fd5b50610165610505366004611e29565b610f94565b61051382610b33565b81111561053b576040516358172fed60e01b8152600481018290526024015b60405180910390fd5b600061054960078484610fcf565b9050600061055a6007858585610ffa565b6001600160a01b0316148061058d57506001600160a01b0383166105816007858585610ffa565b6001600160a01b031614155b156105ab5760405163b12bbbfb60e01b815260040160405180910390fd5b6105b660043361102d565b6105d35760405163390bbec760e11b815260040160405180910390fd5b60046105e26007858585611052565b1660ff16600014610606576040516378b58d8360e01b815260040160405180910390fd5b6001600160a01b03838116600090815260076020908152604080832086845282528083208584529091529020541615610652576040516314141a6f60e21b815260040160405180910390fd5b33600090815260036020526040812054116106bb5760405162461bcd60e51b8152602060048201526024808201527f546865207573657220657363726f772066756e642062616c616e6365206973206044820152637a65726f60e01b6064820152608401610532565b6001600160a01b03831660009081526007602090815260408083208584528252808320848452909152902080546001600160a01b03191633179055505050565b505050565b61070861108c565b801561071c576107196009336110e7565b50565b610719600933611134565b3360009081526004602052604090205460c21c60019081160361075d5760405163122296a960e21b815260040160405180910390fd5b61071961117c565b61076d61108c565b61079282336001600160a01b0384166107865733610788565b835b60099291906111c2565b5050565b60006107a460078484610fcf565b905060046107b56007858585611052565b1660ff166000146107d9576040516378b58d8360e01b815260040160405180910390fd5b6001600160a01b03831660009081526007602090815260408083208584528252808320848452909152902060030180546001600160601b0316600160601b3302179055336001600160a01b038416148015610851575061083c6007848484610ffa565b6001600160a01b0316336001600160a01b0316145b156108615761085f8161131a565b505b600061087060078585856113fe565b60405163534b38d360e11b81529091506001600160a01b037f0000000000000000000000000000000000000000000000000000000000000000169063a69671a6906108c19033908590600401611f2a565b600060405180830381600087803b1580156108db57600080fd5b505af11580156108ef573d6000803e3d6000fd5b5050505050505050565b6040805160a08101825260008082526020820181905291810182905260608101829052608081019190915260006040518060a00160405280336001600160a01b0316815260200161095433600461102d90919063ffffffff16565b151581526020016109866004336001600160a01b03166000908152602091909152604090205460a11c60019081161490565b151581526020016109b86004336001600160a01b03166000908152602091909152604090205460a21c60019081161490565b151581526020016109ea6004336001600160a01b03166000908152602091909152604090205460c11c63ffffffff1690565b63ffffffff16905292915050565b610a0061108c565b610a0a6000611506565b565b6000610a1a60078484610fcf565b90506000610a2b6007858585610ffa565b6001600160a01b03161480610a5e57506001600160a01b038316610a526007858585610ffa565b6001600160a01b031614155b15610a7c5760405163b12bbbfb60e01b815260040160405180910390fd5b610a8760043361102d565b610aa45760405163390bbec760e11b815260040160405180910390fd5b6004610ab36007858585611052565b1660ff16600014610ad7576040516378b58d8360e01b815260040160405180910390fd5b6001600160a01b0383811660009081526007602090815260408083208684528252808320858452909152902054163314610b245760405163790033d360e11b815260040160405180910390fd5b6106fb60078484846001611577565b6001600160a01b0381166000908152600660205260408120545b92915050565b336000908152600360205260409020547f0000000000000000000000000000000000000000000000000000000000000000610b976001600160801b03841683611ffd565b1015610bc157604051632b109a5360e11b81526001600160801b0383166004820152602401610532565b6106fb826001600160801b031661163c565b6000610b4d60073384610fcf565b610bec60043361102d565b1580610c0e57503360009081526004602052604090205460a11c600190811614155b15610c2c5760405163390bbec760e11b815260040160405180910390fd5b856001600160601b0316341015610c58576040516365bc667160e11b8152346004820152602401610532565b6000610c6333610b33565b90506000610c746007338489610ffa565b6001600160a01b031614610c9b5760405163b12bbbfb60e01b815260040160405180910390fd5b610ca7858585856116a2565b6001600160a01b0316336001600160a01b031614610cdb57604051633335be5d60e11b815260048101869052602401610532565b610ced6007600583338c8c8c8c6116ec565b610d00876001600160601b0316866119a9565b505050505050505050565b610d16600482611a79565b6001600160a01b037f00000000000000000000000000000000000000000000000000000000000000001663f95577ed610d526020840184611e29565b6040516001600160e01b031960e084901b1681526001600160a01b039091166004820152602401600060405180830381600087803b158015610d9357600080fd5b505af1158015610da7573d6000803e3d6000fd5b5050505050565b3360008181526006602052604081205490918291610dcf91600791866113fe565b9050610ddb6009611bce565b15610ee8576000610dec6009611be5565b610df66009611c03565b8360e001516001600160601b03160281610e1257610e12612010565b04600118600014610e4d57620186a0610e2b6009611c03565b8360e001516001600160601b03160281610e4757610e47612010565b04610e78565b6103e8610e5a6009611c03565b8360e001516001600160601b03160281610e7657610e76612010565b045b60e0830151604080518381526001600160601b03909216838103602084018190529183015294509091507f9c8f3b776cdaedfd04c0b8f9587f347d349bf93d5312eaac1f0febee30d37e249060600160405180910390a1610ee2610edc6009611c21565b82611c38565b50610ef9565b8060e001516001600160601b031691505b610f028361131a565b508051610f0f9083611c38565b60405163534b38d360e11b81526001600160a01b037f0000000000000000000000000000000000000000000000000000000000000000169063a69671a690610f5d9033908590600401611f2a565b600060405180830381600087803b158015610f7757600080fd5b505af1158015610f8b573d6000803e3d6000fd5b50505050505050565b610f9c61108c565b6001600160a01b038116610fc657604051631e4fbdf760e01b815260006004820152602401610532565b61071981611506565b6001600160a01b03909116600090815260019092016020908152604080842092845291905290205490565b6001600160a01b039283166000908152602094855260408082209382529285528281209181529352909120600101541690565b6001600160a01b03166000908152602091909152604090205460a01c60019081161490565b6001600160a01b0390921660009081526020938452604080822092825291845281812092815291909252205460ff600160a01b9091041690565b336110be7f9016d09d72d40fdae2fd8ceac6b6234c7706214fd39c1cd1e609a0528c199300546001600160a01b031690565b6001600160a01b031614610a0a5760405163118cdaa760e01b8152336004820152602401610532565b81546001600160a01b03828116600160601b90920416146111215781546001600160601b0316600160601b6001600160a01b038316021782555b506001908101805460ff19169091179055565b81546001600160a01b03828116600160601b909204161461116e5781546001600160601b0316600160601b6001600160a01b038316021782555b50600101805460ff19169055565b6000611186611c55565b33600081815260036020526040902054906111a19082611c38565b50503360009081526003602052604081205560016111bf6001600055565b90565b83546001600160a01b03838116600160601b90920416146111fc5783546001600160601b0316600160601b6001600160a01b038416021784555b6020830151835162ffffff91821691161080159061122857506040830151835162ffffff918216911611155b6112745760405162461bcd60e51b815260206004820181905260248201527f4665655363616c652063616e6e6f742065786365656420746865206c696d69746044820152606401610532565b825184546020850151604086015160609096015162ffffff918216600160481b026bffffff000000ffffff000000199093169382166301000000026bffffff0000000000000000001916939093179190911768ffffff000000ffffff1916948116600160301b0262ffffff19169490941793169290921783555060019091018054610100600160a81b0319166101006001600160a01b0390931692909202919091179055565b6000611324611c55565b3360009081526002602090815260408083208584529091528120546001600160801b03169003611367576040516309e57e0160e01b815260040160405180910390fd5b3360008181526002602090815260408083208684528252918290205491516001600160801b0390921680835292859290917f1105a33f299f823b07c2be699bc5c9b002a93efce4127540ac5eaf12759fc312910160405180910390a35050336000908152600260209081526040808320848452909152902080546001600160801b031916905560016113f96001600055565b919050565b6040805161012081018252600080825260208201819052918101829052606081018290526080810182905260a0810182905260c0810182905260e08101829052610100810191909152506001600160a01b039283166000908152602094855260408082209382529285528281209181529084528190208151610120810183528154808516825260ff600160a01b8204811696830196909652600160a81b81049095169281019290925263ffffffff600160b01b850481166060840152600160d01b90940490931660808201526001830154821660a0820152600283015460c08201526003909201546001600160601b03811660e0840152600160601b90041661010082015290565b7f9016d09d72d40fdae2fd8ceac6b6234c7706214fd39c1cd1e609a0528c19930080546001600160a01b031981166001600160a01b03848116918217845560405192169182907f8be0079c531659141344cd1fd0a4f28419497f9722a3daafe3b4186f6b6457e090600090a3505050565b6001600160a01b0380851660008181526020888152604080832088845282528083208784529091529020600190810154909216146115b3575060005b6001600160a01b0385166000908152602087815260408083208784528252808320868452909152902054600160a81b900460ff166001036115f2575060005b506001600160a01b03939093166000908152602094855260408082209382529285528281209181529352909120805460ff60a01b191660ff92909216600160a01b02919091179055565b6000611646611c55565b3360008181526003602052604090819020805485019055517f1dcbb3c90dc9b519c12ac630f91bb3d22ebe3e617613e1bfad83f867be24b81d9061168d9085815260200190565b60405180910390a25060016113f96001600055565b60006040518560005260ff85166020528360405282606052602060016080600060015afa5191503d6116dc57638baa579f6000526004601cfd5b6000606052604052949350505050565b60405180610120016040528060006001600160a01b031681526020016280000060ff168152602001600260ff1681526020014263ffffffff1681526020018563ffffffff168152602001866001600160a01b03168152602001838152602001846001600160601b0316815260200160006001600160a01b0316815250886000016000876001600160a01b03166001600160a01b031681526020019081526020016000206000888152602001908152602001600020600083815260200190815260200160002060008201518160000160006101000a8154816001600160a01b0302191690836001600160a01b0316021790555060208201518160000160146101000a81548160ff021916908360ff16021790555060408201518160000160156101000a81548160ff021916908360ff16021790555060608201518160000160166101000a81548163ffffffff021916908363ffffffff160217905550608082015181600001601a6101000a81548163ffffffff021916908363ffffffff16021790555060a08201518160010160006101000a8154816001600160a01b0302191690836001600160a01b0316021790555060c0820151816002015560e08201518160030160006101000a8154816001600160601b0302191690836001600160601b0316021790555061010082015181600301600c6101000a8154816001600160a01b0302191690836001600160a01b03160217905550905050428463ffffffff161161192157637811aa5560e01b60005260046000fd5b6001600160a01b0385166000908152600189016020908152604080832089845290915290208190556119538786611c7f565b60018463ffffffff16866001600160a01b03167f73e539e45c9126603bfa7101742c49cfd2d217cb262688c029df898e823ee21b8960405161199791815260200190565b60405180910390a45050505050505050565b60006119b3611c55565b7f0000000000000000000000000000000000000000000000000000000000000000836001600160801b03161015611a08576040516365bc667160e11b81526001600160801b0384166004820152602401610532565b33600081815260026020908152604080832086845282529182902080546001600160801b0319166001600160801b03881617905590513481527f1dcbb3c90dc9b519c12ac630f91bb3d22ebe3e617613e1bfad83f867be24b81d910160405180910390a2506001610b4d6001600055565b6001611ab183611a8c6020850185611e29565b6001600160a01b03166000908152602091909152604090205460a21c60019081161490565b15611aba575060005b611aca6040830160208401611d43565b158015611ae45750611ae26060830160408401611d43565b155b15611aed575060005b426000600160c21b60c183901b600160a21b611b0f6060880160408901611d43565b611b1a576000611b20565b600160a11b5b611b306040890160208a01611d43565b611b3b576000611b41565b600160a01b5b611b4e60208a018a611e29565b6001600160a01b03161717171717905080856000611b6f6020880188611e29565b6001600160a01b0316815260208101919091526040016000205582611b9f57630343263d60e61b60005260046000fd5b81847f0ad17e9dc2c6686d825217c155508a34c618e491c8584ec8909a829d69b1cf0660606000a35050505050565b6000611bd982611caf565b50979650505050505050565b6000611bf082611caf565b505062ffffff9094169695505050505050565b6000611c0e82611caf565b505062ffffff9093169695505050505050565b6000611c2c82611caf565b98975050505050505050565b60008060008084865af1806106fb5763b1c003de60005260046000fd5b600260005403611c7857604051633ee5aeb560e01b815260040160405180910390fd5b6002600055565b6001600160a01b038116600090815260018301602052604081208054909190611ca790612026565b909155505050565b805460019091015462ffffff8083169363010000008404821693600160301b8104831693600160481b820490931692600160601b9091046001600160a01b039081169260ff831692610100900490911690565b80356001600160a01b03811681146113f957600080fd5b60008060408385031215611d2c57600080fd5b611d3583611d02565b946020939093013593505050565b600060208284031215611d5557600080fd5b81358015158114611d6557600080fd5b9392505050565b634e487b7160e01b600052604160045260246000fd5b803562ffffff811681146113f957600080fd5b60008060a08385031215611da857600080fd5b83601f840112611db757600080fd5b6040516080810181811067ffffffffffffffff82111715611dda57611dda611d6c565b604052806080850186811115611def57600080fd5b855b81811015611e1057611e0281611d82565b835260209283019201611df1565b50829450611e1d81611d02565b93505050509250929050565b600060208284031215611e3b57600080fd5b611d6582611d02565b600060208284031215611e5657600080fd5b81356001600160801b0381168114611d6557600080fd5b600060208284031215611e7f57600080fd5b5035919050565b600080600080600080600060e0888a031215611ea157600080fd5b873563ffffffff81168114611eb557600080fd5b965060208801356001600160601b0381168114611ed157600080fd5b95506040880135945060608801359350608088013560ff81168114611ef557600080fd5b9699959850939692959460a0840135945060c09093013592915050565b600060a08284031215611f2457600080fd5b50919050565b6001600160a01b03838116825282511660208083019190915282015160ff16604080830191909152820151610140820190611f6a606084018260ff169052565b50606083015163ffffffff8116608084015250608083015163ffffffff811660a08401525060a08301516001600160a01b03811660c08401525060c083015160e083015260e0830151610100611fca818501836001600160601b03169052565b8401516001600160a01b0381166101208501529050509392505050565b634e487b7160e01b600052601160045260246000fd5b80820180821115610b4d57610b4d611fe7565b634e487b7160e01b600052601260045260246000fd5b60006001820161203857612038611fe7565b506001019056fea26469706673582212203b61c52555af5f9b3b6a3686fdac2411fedb4fbd03205237cfa471006336afe164736f6c63430008150033",
    "linkReferences": {}
  },
  "methodIdentifiers": {
    "CLIENT_ESCROW_AMOUNT()": "8374d1e8",
    "MAX_ESCROW_AMOUNT()": "5652ba2d",
    "MIN_ESCROW_AMOUNT()": "8e9856f9",
    "WonderJobArbitration()": "80c19936",
    "acceptOrder(address,uint256)": "01e58813",
    "cancelOrder(address,uint256)": "6a206137",
    "completeOrder(bytes32)": "ddf5df45",
    "createOrder(uint32,uint96,bytes32,bytes32,uint8,bytes32,bytes32)": "aecde1ee",
    "createUser((address,bool,bool,bool,uint256))": "d6785094",
    "depositEscrowFundWithClient(uint128)": "818c18a2",
    "feeConfig()": "1e5eb1d0",
    "getClientEscrowFundBalanceof(address)": "ecb9a7a5",
    "getOrderId(uint256)": "9d2166ae",
    "getOrderNonce(address)": "7586e19d",
    "getUserProfile()": "6f61c744",
    "owner()": "8da5cb5b",
    "renounceOwnership()": "715018a6",
    "setFee(bool)": "025a4865",
    "setFeeConfig(uint24[4],address)": "19e88a3d",
    "submitOrder(address,uint256)": "757a2666",
    "transferOwnership(address)": "f2fde38b",
    "withdrowEscrowFundWithClient()": "1674e310"
  },
  "id": 31
}