{
  "abi": [
    {
      "inputs": [],
      "stateMutability": "nonpayable",
      "type": "constructor"
    },
    {
      "inputs": [],
      "name": "CreditScoreIsZero",
      "type": "error"
    },
    {
      "inputs": [
        {
          "internalType": "uint256",
          "name": "creitScore",
          "type": "uint256"
        }
      ],
      "name": "InsufficientCreitScore",
      "type": "error"
    },
    {
      "inputs": [
        {
          "internalType": "address",
          "name": "owner",
          "type": "address"
        }
      ],
      "name": "OwnableInvalidOwner",
      "type": "error"
    },
    {
      "inputs": [
        {
          "internalType": "address",
          "name": "account",
          "type": "address"
        }
      ],
      "name": "OwnableUnauthorizedAccount",
      "type": "error"
    },
    {
      "inputs": [],
      "name": "UserHasInitializedUserEstimate",
      "type": "error"
    },
    {
      "anonymous": false,
      "inputs": [
        {
          "indexed": true,
          "internalType": "address",
          "name": "previousOwner",
          "type": "address"
        },
        {
          "indexed": true,
          "internalType": "address",
          "name": "newOwner",
          "type": "address"
        }
      ],
      "name": "OwnershipTransferred",
      "type": "event"
    },
    {
      "inputs": [],
      "name": "CANCEL_ORDER_PUNISHMENT_SCORE",
      "outputs": [
        {
          "internalType": "uint256",
          "name": "",
          "type": "uint256"
        }
      ],
      "stateMutability": "view",
      "type": "function"
    },
    {
      "inputs": [],
      "name": "EXTRA_CREDIT_SCORE",
      "outputs": [
        {
          "internalType": "uint256",
          "name": "",
          "type": "uint256"
        }
      ],
      "stateMutability": "view",
      "type": "function"
    },
    {
      "inputs": [],
      "name": "FIRST_TIME_COMPLETE_ORDER_REWARD_REWARD",
      "outputs": [
        {
          "internalType": "uint256",
          "name": "",
          "type": "uint256"
        }
      ],
      "stateMutability": "view",
      "type": "function"
    },
    {
      "inputs": [],
      "name": "MAX_CREDIT_SCORE",
      "outputs": [
        {
          "internalType": "uint256",
          "name": "",
          "type": "uint256"
        }
      ],
      "stateMutability": "view",
      "type": "function"
    },
    {
      "inputs": [],
      "name": "MIN_CREDIT_SCORE",
      "outputs": [
        {
          "internalType": "uint256",
          "name": "",
          "type": "uint256"
        }
      ],
      "stateMutability": "view",
      "type": "function"
    },
    {
      "inputs": [],
      "name": "MIN_CREIT_SCORE_FALLBACK",
      "outputs": [
        {
          "internalType": "uint256",
          "name": "",
          "type": "uint256"
        }
      ],
      "stateMutability": "view",
      "type": "function"
    },
    {
      "inputs": [],
      "name": "TIMEOUT_ORDER_PUNISHMENT_SCORE",
      "outputs": [
        {
          "internalType": "uint256",
          "name": "",
          "type": "uint256"
        }
      ],
      "stateMutability": "view",
      "type": "function"
    },
    {
      "inputs": [],
      "name": "getResolveDisputeFee",
      "outputs": [
        {
          "internalType": "uint256",
          "name": "fee",
          "type": "uint256"
        }
      ],
      "stateMutability": "view",
      "type": "function"
    },
    {
      "inputs": [
        {
          "internalType": "address",
          "name": "user",
          "type": "address"
        }
      ],
      "name": "getUserEstimate",
      "outputs": [
        {
          "components": [
            {
              "internalType": "uint32",
              "name": "creditScore",
              "type": "uint32"
            },
            {
              "internalType": "uint32",
              "name": "completedOrdersCount",
              "type": "uint32"
            },
            {
              "internalType": "uint32",
              "name": "disputedOrdersCount",
              "type": "uint32"
            },
            {
              "internalType": "uint32",
              "name": "cancelledOrdersCount",
              "type": "uint32"
            },
            {
              "internalType": "uint32",
              "name": "totalSpent",
              "type": "uint32"
            },
            {
              "internalType": "uint32",
              "name": "totalEarned",
              "type": "uint32"
            },
            {
              "internalType": "bool",
              "name": "isBlockListedUser",
              "type": "bool"
            },
            {
              "internalType": "bool",
              "name": "initialized",
              "type": "bool"
            }
          ],
          "internalType": "struct UserEstimate",
          "name": "userEstimate",
          "type": "tuple"
        }
      ],
      "stateMutability": "view",
      "type": "function"
    },
    {
      "inputs": [],
      "name": "implementation",
      "outputs": [
        {
          "internalType": "address",
          "name": "",
          "type": "address"
        }
      ],
      "stateMutability": "view",
      "type": "function"
    },
    {
      "inputs": [
        {
          "internalType": "address",
          "name": "user",
          "type": "address"
        }
      ],
      "name": "initializeUserEstimate",
      "outputs": [],
      "stateMutability": "nonpayable",
      "type": "function"
    },
    {
      "inputs": [
        {
          "internalType": "address",
          "name": "user",
          "type": "address"
        },
        {
          "components": [
            {
              "internalType": "address",
              "name": "client",
              "type": "address"
            },
            {
              "internalType": "uint8",
              "name": "orderStatus",
              "type": "uint8"
            },
            {
              "internalType": "uint8",
              "name": "isOrderComplete",
              "type": "uint8"
            },
            {
              "internalType": "uint32",
              "name": "launchTime",
              "type": "uint32"
            },
            {
              "internalType": "uint32",
              "name": "deadline",
              "type": "uint32"
            },
            {
              "internalType": "address",
              "name": "serviceProvider",
              "type": "address"
            },
            {
              "internalType": "bytes32",
              "name": "ipfsLink",
              "type": "bytes32"
            },
            {
              "internalType": "uint96",
              "name": "totalPrice",
              "type": "uint96"
            },
            {
              "internalType": "address",
              "name": "cancelOrderUser",
              "type": "address"
            }
          ],
          "internalType": "struct Order",
          "name": "params",
          "type": "tuple"
        }
      ],
      "name": "orderValidatorCallWithFallback",
      "outputs": [],
      "stateMutability": "nonpayable",
      "type": "function"
    },
    {
      "inputs": [],
      "name": "owner",
      "outputs": [
        {
          "internalType": "address",
          "name": "",
          "type": "address"
        }
      ],
      "stateMutability": "view",
      "type": "function"
    },
    {
      "inputs": [],
      "name": "renounceOwnership",
      "outputs": [],
      "stateMutability": "nonpayable",
      "type": "function"
    },
    {
      "inputs": [
        {
          "internalType": "uint256",
          "name": "newResolveDisputeFee",
          "type": "uint256"
        }
      ],
      "name": "setResolveDisputeFee",
      "outputs": [],
      "stateMutability": "nonpayable",
      "type": "function"
    },
    {
      "inputs": [
        {
          "internalType": "address",
          "name": "newOwner",
          "type": "address"
        }
      ],
      "name": "transferOwnership",
      "outputs": [],
      "stateMutability": "nonpayable",
      "type": "function"
    },
    {
      "inputs": [
        {
          "internalType": "address",
          "name": "to",
          "type": "address"
        },
        {
          "internalType": "uint256",
          "name": "amount",
          "type": "uint256"
        }
      ],
      "name": "tryTransferCreditScore",
      "outputs": [
        {
          "internalType": "bool",
          "name": "",
          "type": "bool"
        }
      ],
      "stateMutability": "nonpayable",
      "type": "function"
    }
  ],
  "bytecode": {
    "object": "0x6080604052662386f26fc1000060025534801561001b57600080fd5b50338061004257604051631e4fbdf760e01b81526000600482015260240160405180910390fd5b61004b81610051565b506100a1565b600080546001600160a01b038381166001600160a01b0319831681178455604051919092169283917f8be0079c531659141344cd1fd0a4f28419497f9722a3daafe3b4186f6b6457e09190a35050565b61084c806100b06000396000f3fe608060405234801561001057600080fd5b506004361061010b5760003560e01c80638eea1fd9116100a2578063f0db2b4a11610071578063f0db2b4a146102c5578063f2fde38b146102cd578063f6b4b1d9146102c5578063f95577ed146102e0578063fda7fba41461032157600080fd5b80638eea1fd91461028f578063a69671a614610297578063a6daeea2146102aa578063be3e6955146102bd57600080fd5b806354203e09116100de57806354203e09146102405780635c60da1b14610249578063715018a6146102745780638da5cb5b1461027e57600080fd5b80630a49cf4d146101105780631a2f391f1461012b5780631a73a510146101335780631cee54df14610238575b600080fd5b610118603281565b6040519081526020015b60405180910390f35b610118600a81565b61022b6101413660046106a3565b6040805161010081018252600080825260208201819052918101829052606081018290526080810182905260a0810182905260c0810182905260e0810191909152506001600160a01b0316600090815260036020908152604091829020825161010081018452905463ffffffff80821683526401000000008204811693830193909352680100000000000000008104831693820193909352600160601b830482166060820152600160801b830482166080820152600160a01b830490911660a082015260ff600160c01b83048116151560c0830152600160c81b909204909116151560e082015290565b60405161012291906106c5565b610118609681565b61011861271081565b60015461025c906001600160a01b031681565b6040516001600160a01b039091168152602001610122565b61027c610344565b005b6000546001600160a01b031661025c565b610118600281565b61027c6102a5366004610744565b610358565b61027c6102b8366004610785565b610539565b600254610118565b610118600581565b61027c6102db3660046106a3565b610546565b61027c6102ee3660046106a3565b6001600160a01b03166000908152600360205260409020805463ffffffff60ff60c81b0119166032600160c81b01179055565b61033461032f36600461079e565b610589565b6040519015158152602001610122565b61034c61060a565b6103566000610637565b565b6001600160a01b038216600090815260036020818152604083209291908290610383908601866106a3565b6001600160a01b031681526020810191909152604001600090812091506003816103b5610120870161010088016106a3565b6001600160a01b03168152602081019190915260400160009081208454909250600a63ffffffff90911610156103fe5760405163f12ff25960e01b815260040160405180910390fd5b6000610412610120870161010088016106a3565b6001600160a01b0316146104635750805460029063ffffffff1681111561043a57600061044d565b815461044d90829063ffffffff166107c8565b825463ffffffff191663ffffffff919091161782555b600461047560408701602088016107f3565b1660ff16156104c15750815460059063ffffffff168111156104985760006104ab565b82546104ab90829063ffffffff166107c8565b835463ffffffff191663ffffffff919091161783555b835461271063ffffffff9091161015610531576104e460c0860160a087016106a3565b6001600160a01b0316866001600160a01b031603610531578254640100000000900463ffffffff166000036105315750815463ffffffff198116600563ffffffff92831681019092161783555b505050505050565b61054161060a565b600255565b61054e61060a565b6001600160a01b03811661057d57604051631e4fbdf760e01b8152600060048201526024015b60405180910390fd5b61058681610637565b50565b600060405133815260036020820152604081206000810154848110156105ae57600080fd5b8533036105ba57600080fd5b849003905583815260036020808301919091526040909120805484019055839033907fddf252ad1be2c89b69c2b068fc378daa952ba7f163c4a11628f55a4df523b3ef906000a350600192915050565b6000546001600160a01b031633146103565760405163118cdaa760e01b8152336004820152602401610574565b600080546001600160a01b038381166001600160a01b0319831681178455604051919092169283917f8be0079c531659141344cd1fd0a4f28419497f9722a3daafe3b4186f6b6457e09190a35050565b80356001600160a01b038116811461069e57600080fd5b919050565b6000602082840312156106b557600080fd5b6106be82610687565b9392505050565b60006101008201905063ffffffff8084511683528060208501511660208401528060408501511660408401528060608501511660608401528060808501511660808401528060a08501511660a08401525060c083015161072960c084018215159052565b5060e083015161073d60e084018215159052565b5092915050565b60008082840361014081121561075957600080fd5b61076284610687565b9250610120601f198201121561077757600080fd5b506020830190509250929050565b60006020828403121561079757600080fd5b5035919050565b600080604083850312156107b157600080fd5b6107ba83610687565b946020939093013593505050565b63ffffffff82811682821603908082111561073d57634e487b7160e01b600052601160045260246000fd5b60006020828403121561080557600080fd5b813560ff811681146106be57600080fdfea2646970667358221220227d7d76d50dd8c69b46d6c5117d7e7590d524bf594926a83abdbc1f90c2a53964736f6c63430008150033",
    "linkReferences": {}
  },
  "methodIdentifiers": {
    "CANCEL_ORDER_PUNISHMENT_SCORE()": "8eea1fd9",
    "EXTRA_CREDIT_SCORE()": "1cee54df",
    "FIRST_TIME_COMPLETE_ORDER_REWARD_REWARD()": "f6b4b1d9",
    "MAX_CREDIT_SCORE()": "54203e09",
    "MIN_CREDIT_SCORE()": "0a49cf4d",
    "MIN_CREIT_SCORE_FALLBACK()": "1a2f391f",
    "TIMEOUT_ORDER_PUNISHMENT_SCORE()": "f0db2b4a",
    "getResolveDisputeFee()": "be3e6955",
    "getUserEstimate(address)": "1a73a510",
    "implementation()": "5c60da1b",
    "initializeUserEstimate(address)": "f95577ed",
    "orderValidatorCallWithFallback(address,(address,uint8,uint8,uint32,uint32,address,bytes32,uint96,address))": "a69671a6",
    "owner()": "8da5cb5b",
    "renounceOwnership()": "715018a6",
    "setResolveDisputeFee(uint256)": "a6daeea2",
    "transferOwnership(address)": "f2fde38b",
    "tryTransferCreditScore(address,uint256)": "fda7fba4"
  },
  "id": 24
}